:03000000020030CB
:03000B0002004BA5
:100030007800753100753200753300758901758C53
:10004000EC758A78D28C75A88280FE758CEC758AE6
:10005000EC900082E53193F5B090008AE53293F59B
:100060008005320531E531B4080575310088320567
:1000700033E533B4280B75330008B858027800888C
:100080003232FEFDFBF7EFDFBF7F00000000000013
:10009000000000003E4141413E0000000000217F81
:1000A0000100000027454545390000002249494923
:1000B000360000000C14247F0400000072515151DE
:1000C0004E0000003E494949260000004040404F94
:1000D000700000003649494936000000324949495C
:0A00E0003E000000000000000000D8
:00000001FF
